{
  "_format": "hh-sol-artifact-1",
  "contractName": "MyNFTCollection",
  "sourceName": "contracts/MyNFTCollection.sol",
  "abi": [
    {
      "inputs": [],
      "stateMutability": "nonpayable",
      "type": "constructor"
    },
    {
      "anonymous": false,
      "inputs": [
        {
          "indexed": true,
          "internalType": "address",
          "name": "owner",
          "type": "address"
        },
        {
          "indexed": true,
          "internalType": "address",
          "name": "approved",
          "type": "address"
        },
        {
          "indexed": true,
          "internalType": "uint256",
          "name": "tokenId",
          "type": "uint256"
        }
      ],
      "name": "Approval",
      "type": "event"
    },
    {
      "anonymous": false,
      "inputs": [
        {
          "indexed": true,
          "internalType": "address",
          "name": "owner",
          "type": "address"
        },
        {
          "indexed": true,
          "internalType": "address",
          "name": "operator",
          "type": "address"
        },
        {
          "indexed": false,
          "internalType": "bool",
          "name": "approved",
          "type": "bool"
        }
      ],
      "name": "ApprovalForAll",
      "type": "event"
    },
    {
      "anonymous": false,
      "inputs": [
        {
          "indexed": true,
          "internalType": "address",
          "name": "from",
          "type": "address"
        },
        {
          "indexed": true,
          "internalType": "address",
          "name": "to",
          "type": "address"
        },
        {
          "indexed": true,
          "internalType": "uint256",
          "name": "tokenId",
          "type": "uint256"
        }
      ],
      "name": "Transfer",
      "type": "event"
    },
    {
      "anonymous": false,
      "inputs": [
        {
          "indexed": false,
          "internalType": "address",
          "name": "sender",
          "type": "address"
        },
        {
          "indexed": false,
          "internalType": "uint256",
          "name": "tokenId",
          "type": "uint256"
        }
      ],
      "name": "newNftMinted",
      "type": "event"
    },
    {
      "inputs": [
        {
          "internalType": "address",
          "name": "to",
          "type": "address"
        },
        {
          "internalType": "uint256",
          "name": "tokenId",
          "type": "uint256"
        }
      ],
      "name": "approve",
      "outputs": [],
      "stateMutability": "nonpayable",
      "type": "function"
    },
    {
      "inputs": [
        {
          "internalType": "address",
          "name": "owner",
          "type": "address"
        }
      ],
      "name": "balanceOf",
      "outputs": [
        {
          "internalType": "uint256",
          "name": "",
          "type": "uint256"
        }
      ],
      "stateMutability": "view",
      "type": "function"
    },
    {
      "inputs": [
        {
          "internalType": "uint256",
          "name": "tokenId",
          "type": "uint256"
        }
      ],
      "name": "getApproved",
      "outputs": [
        {
          "internalType": "address",
          "name": "",
          "type": "address"
        }
      ],
      "stateMutability": "view",
      "type": "function"
    },
    {
      "inputs": [],
      "name": "getNumberOfNftMinted",
      "outputs": [
        {
          "internalType": "uint256",
          "name": "",
          "type": "uint256"
        }
      ],
      "stateMutability": "view",
      "type": "function"
    },
    {
      "inputs": [
        {
          "internalType": "address",
          "name": "owner",
          "type": "address"
        },
        {
          "internalType": "address",
          "name": "operator",
          "type": "address"
        }
      ],
      "name": "isApprovedForAll",
      "outputs": [
        {
          "internalType": "bool",
          "name": "",
          "type": "bool"
        }
      ],
      "stateMutability": "view",
      "type": "function"
    },
    {
      "inputs": [],
      "name": "makeAnNFT",
      "outputs": [],
      "stateMutability": "nonpayable",
      "type": "function"
    },
    {
      "inputs": [],
      "name": "name",
      "outputs": [
        {
          "internalType": "string",
          "name": "",
          "type": "string"
        }
      ],
      "stateMutability": "view",
      "type": "function"
    },
    {
      "inputs": [
        {
          "internalType": "uint256",
          "name": "tokenId",
          "type": "uint256"
        }
      ],
      "name": "ownerOf",
      "outputs": [
        {
          "internalType": "address",
          "name": "",
          "type": "address"
        }
      ],
      "stateMutability": "view",
      "type": "function"
    },
    {
      "inputs": [
        {
          "internalType": "address",
          "name": "from",
          "type": "address"
        },
        {
          "internalType": "address",
          "name": "to",
          "type": "address"
        },
        {
          "internalType": "uint256",
          "name": "tokenId",
          "type": "uint256"
        }
      ],
      "name": "safeTransferFrom",
      "outputs": [],
      "stateMutability": "nonpayable",
      "type": "function"
    },
    {
      "inputs": [
        {
          "internalType": "address",
          "name": "from",
          "type": "address"
        },
        {
          "internalType": "address",
          "name": "to",
          "type": "address"
        },
        {
          "internalType": "uint256",
          "name": "tokenId",
          "type": "uint256"
        },
        {
          "internalType": "bytes",
          "name": "data",
          "type": "bytes"
        }
      ],
      "name": "safeTransferFrom",
      "outputs": [],
      "stateMutability": "nonpayable",
      "type": "function"
    },
    {
      "inputs": [
        {
          "internalType": "address",
          "name": "operator",
          "type": "address"
        },
        {
          "internalType": "bool",
          "name": "approved",
          "type": "bool"
        }
      ],
      "name": "setApprovalForAll",
      "outputs": [],
      "stateMutability": "nonpayable",
      "type": "function"
    },
    {
      "inputs": [
        {
          "internalType": "bytes4",
          "name": "interfaceId",
          "type": "bytes4"
        }
      ],
      "name": "supportsInterface",
      "outputs": [
        {
          "internalType": "bool",
          "name": "",
          "type": "bool"
        }
      ],
      "stateMutability": "view",
      "type": "function"
    },
    {
      "inputs": [],
      "name": "symbol",
      "outputs": [
        {
          "internalType": "string",
          "name": "",
          "type": "string"
        }
      ],
      "stateMutability": "view",
      "type": "function"
    },
    {
      "inputs": [
        {
          "internalType": "uint256",
          "name": "tokenId",
          "type": "uint256"
        }
      ],
      "name": "tokenURI",
      "outputs": [
        {
          "internalType": "string",
          "name": "",
          "type": "string"
        }
      ],
      "stateMutability": "view",
      "type": "function"
    },
    {
      "inputs": [
        {
          "internalType": "address",
          "name": "from",
          "type": "address"
        },
        {
          "internalType": "address",
          "name": "to",
          "type": "address"
        },
        {
          "internalType": "uint256",
          "name": "tokenId",
          "type": "uint256"
        }
      ],
      "name": "transferFrom",
      "outputs": [],
      "stateMutability": "nonpayable",
      "type": "function"
    }
  ],
  "bytecode": "0x608060405260326008553480156200001657600080fd5b506040518060400160405280600581526020017f6d794e66740000000000000000000000000000000000000000000000000000008152506040518060400160405280600481526020017f4d4e46540000000000000000000000000000000000000000000000000000000081525081600090805190602001906200009b929190620001d4565b508060019080519060200190620000b4929190620001d4565b505050620001026040518060400160405280601281526020017f436f6e747261746f204e465420666569746f00000000000000000000000000008152506200010860201b62000b851760201c565b620003b1565b620001a8816040516024016200011f9190620002c5565b6040516020818303038152906040527f41304fac000000000000000000000000000000000000000000000000000000007bffffffffffffffffffffffffffffffffffffffffffffffffffffffff19166020820180517bffffffffffffffffffffffffffffffffffffffffffffffffffffffff8381831617835250505050620001ab60201b60201c565b50565b60008151905060006a636f6e736f6c652e6c6f679050602083016000808483855afa5050505050565b828054620001e2906200033b565b90600052602060002090601f01602090048101928262000206576000855562000252565b82601f106200022157805160ff191683800117855562000252565b8280016001018555821562000252579182015b828111156200025157825182559160200191906001019062000234565b5b50905062000261919062000265565b5090565b5b808211156200028057600081600090555060010162000266565b5090565b60006200029182620002e9565b6200029d8185620002f4565b9350620002af81856020860162000305565b620002ba81620003a0565b840191505092915050565b60006020820190508181036000830152620002e1818462000284565b905092915050565b600081519050919050565b600082825260208201905092915050565b60005b838110156200032557808201518184015260208101905062000308565b8381111562000335576000848401525b50505050565b600060028204905060018216806200035457607f821691505b602082108114156200036b576200036a62000371565b5b50919050565b7f4e487b7100000000000000000000000000000000000000000000000000000000600052602260045260246000fd5b6000601f19601f8301169050919050565b612b6080620003c16000396000f3fe608060405234801561001057600080fd5b50600436106100f55760003560e01c80636352211e11610097578063b88d4fde11610066578063b88d4fde14610284578063c87b56dd146102a0578063e4d098e1146102d0578063e985e9c5146102da576100f5565b80636352211e146101ea57806370a082311461021a57806395d89b411461024a578063a22cb46514610268576100f5565b8063095ea7b3116100d3578063095ea7b31461017857806323b872dd146101945780633f6d3e09146101b057806342842e0e146101ce576100f5565b806301ffc9a7146100fa57806306fdde031461012a578063081812fc14610148575b600080fd5b610114600480360381019061010f9190611d83565b61030a565b6040516101219190612149565b60405180910390f35b6101326103ec565b60405161013f9190612164565b60405180910390f35b610162600480360381019061015d9190611dd5565b61047e565b60405161016f91906120b9565b60405180910390f35b610192600480360381019061018d9190611d47565b6104c4565b005b6101ae60048036038101906101a99190611c41565b6105dc565b005b6101b861063c565b6040516101c59190612364565b60405180910390f35b6101e860048036038101906101e39190611c41565b610646565b005b61020460048036038101906101ff9190611dd5565b610666565b60405161021191906120b9565b60405180910390f35b610234600480360381019061022f9190611bdc565b610718565b6040516102419190612364565b60405180910390f35b6102526107d0565b60405161025f9190612164565b60405180910390f35b610282600480360381019061027d9190611d0b565b610862565b005b61029e60048036038101906102999190611c90565b610878565b005b6102ba60048036038101906102b59190611dd5565b6108da565b6040516102c79190612164565b60405180910390f35b6102d86109ed565b005b6102f460048036038101906102ef9190611c05565b610af1565b6040516103019190612149565b60405180910390f35b60007f80ac58cd000000000000000000000000000000000000000000000000000000007bffffffffffffffffffffffffffffffffffffffffffffffffffffffff1916827bffffffffffffffffffffffffffffffffffffffffffffffffffffffff191614806103d557507f5b5e139f000000000000000000000000000000000000000000000000000000007bffffffffffffffffffffffffffffffffffffffffffffffffffffffff1916827bffffffffffffffffffffffffffffffffffffffffffffffffffffffff1916145b806103e557506103e482610c1e565b5b9050919050565b6060600080546103fb90612589565b80601f016020809104026020016040519081016040528092919081815260200182805461042790612589565b80156104745780601f1061044957610100808354040283529160200191610474565b820191906000526020600020905b81548152906001019060200180831161045757829003601f168201915b5050505050905090565b600061048982610c88565b6004600083815260200190815260200160002060009054906101000a900473ffffffffffffffffffffffffffffffffffffffff169050919050565b60006104cf82610666565b90508073ffffffffffffffffffffffffffffffffffffffff168373ffffffffffffffffffffffffffffffffffffffff161415610540576040517f08c379a000000000000000000000000000000000000000000000000000000000815260040161053790612324565b60405180910390fd5b8073ffffffffffffffffffffffffffffffffffffffff1661055f610cd3565b73ffffffffffffffffffffffffffffffffffffffff16148061058e575061058d81610588610cd3565b610af1565b5b6105cd576040517f08c379a00000000000000000000000000000000000000000000000000000000081526004016105c4906122a4565b60405180910390fd5b6105d78383610cdb565b505050565b6105ed6105e7610cd3565b82610d94565b61062c576040517f08c379a000000000000000000000000000000000000000000000000000000000815260040161062390612344565b60405180910390fd5b610637838383610e29565b505050565b6000600954905090565b61066183838360405180602001604052806000815250610878565b505050565b6000806002600084815260200190815260200160002060009054906101000a900473ffffffffffffffffffffffffffffffffffffffff169050600073ffffffffffffffffffffffffffffffffffffffff168173ffffffffffffffffffffffffffffffffffffffff16141561070f576040517f08c379a000000000000000000000000000000000000000000000000000000000815260040161070690612304565b60405180910390fd5b80915050919050565b60008073ffffffffffffffffffffffffffffffffffffffff168273ffffffffffffffffffffffffffffffffffffffff161415610789576040517f08c379a000000000000000000000000000000000000000000000000000000000815260040161078090612264565b60405180910390fd5b600360008373ffffffffffffffffffffffffffffffffffffffff1673ffffffffffffffffffffffffffffffffffffffff168152602001908152602001600020549050919050565b6060600180546107df90612589565b80601f016020809104026020016040519081016040528092919081815260200182805461080b90612589565b80156108585780601f1061082d57610100808354040283529160200191610858565b820191906000526020600020905b81548152906001019060200180831161083b57829003601f168201915b5050505050905090565b61087461086d610cd3565b8383611090565b5050565b610889610883610cd3565b83610d94565b6108c8576040517f08c379a00000000000000000000000000000000000000000000000000000000081526004016108bf90612344565b60405180910390fd5b6108d4848484846111fd565b50505050565b60606108e582610c88565b600060066000848152602001908152602001600020805461090590612589565b80601f016020809104026020016040519081016040528092919081815260200182805461093190612589565b801561097e5780601f106109535761010080835404028352916020019161097e565b820191906000526020600020905b81548152906001019060200180831161096157829003601f168201915b50505050509050600061098f611259565b90506000815114156109a55781925050506109e8565b6000825111156109da5780826040516020016109c2929190612095565b604051602081830303815290604052925050506109e8565b6109e384611270565b925050505b919050565b60006109f960076112d8565b9050600854811115610a40576040517f08c379a0000000000000000000000000000000000000000000000000000000008152600401610a37906122e4565b60405180910390fd5b610a4a33826112e6565b610a6c81604051806060016040528060358152602001612af660359139611304565b610a8f604051806060016040528060218152602001612ad5602191398233611378565b610a996007611417565b6001610aa560076112d8565b610aaf9190612418565b6009819055507f235834212a6b87f1642d2129e022f30aee6f09dd44f80bca0f551dc93b281ac43382604051610ae6929190612120565b60405180910390a150565b6000600560008473ffffffffffffffffffffffffffffffffffffffff1673ffffffffffffffffffffffffffffffffffffffff16815260200190815260200160002060008373ffffffffffffffffffffffffffffffffffffffff1673ffffffffffffffffffffffffffffffffffffffff16815260200190815260200160002060009054906101000a900460ff16905092915050565b610c1b81604051602401610b999190612164565b6040516020818303038152906040527f41304fac000000000000000000000000000000000000000000000000000000007bffffffffffffffffffffffffffffffffffffffffffffffffffffffff19166020820180517bffffffffffffffffffffffffffffffffffffffffffffffffffffffff838183161783525050505061142d565b50565b60007f01ffc9a7000000000000000000000000000000000000000000000000000000007bffffffffffffffffffffffffffffffffffffffffffffffffffffffff1916827bffffffffffffffffffffffffffffffffffffffffffffffffffffffff1916149050919050565b610c9181611456565b610cd0576040517f08c379a0000000000000000000000000000000000000000000000000000000008152600401610cc790612304565b60405180910390fd5b50565b600033905090565b816004600083815260200190815260200160002060006101000a81548173ffffffffffffffffffffffffffffffffffffffff021916908373ffffffffffffffffffffffffffffffffffffffff160217905550808273ffffffffffffffffffffffffffffffffffffffff16610d4e83610666565b73ffffffffffffffffffffffffffffffffffffffff167f8c5be1e5ebec7d5bd14f71427d1e84f3dd0314c0f7b2291e5b200ac8c7c3b92560405160405180910390a45050565b600080610da083610666565b90508073ffffffffffffffffffffffffffffffffffffffff168473ffffffffffffffffffffffffffffffffffffffff161480610de25750610de18185610af1565b5b80610e2057508373ffffffffffffffffffffffffffffffffffffffff16610e088461047e565b73ffffffffffffffffffffffffffffffffffffffff16145b91505092915050565b8273ffffffffffffffffffffffffffffffffffffffff16610e4982610666565b73ffffffffffffffffffffffffffffffffffffffff1614610e9f576040517f08c379a0000000000000000000000000000000000000000000000000000000008152600401610e96906121e4565b60405180910390fd5b600073ffffffffffffffffffffffffffffffffffffffff168273ffffffffffffffffffffffffffffffffffffffff161415610f0f576040517f08c379a0000000000000000000000000000000000000000000000000000000008152600401610f0690612224565b60405180910390fd5b610f1a8383836114c2565b610f25600082610cdb565b6001600360008573ffffffffffffffffffffffffffffffffffffffff1673ffffffffffffffffffffffffffffffffffffffff1681526020019081526020016000206000828254610f75919061249f565b925050819055506001600360008473ffffffffffffffffffffffffffffffffffffffff1673ffffffffffffffffffffffffffffffffffffffff1681526020019081526020016000206000828254610fcc9190612418565b92505081905550816002600083815260200190815260200160002060006101000a81548173ffffffffffffffffffffffffffffffffffffffff021916908373ffffffffffffffffffffffffffffffffffffffff160217905550808273ffffffffffffffffffffffffffffffffffffffff168473ffffffffffffffffffffffffffffffffffffffff167fddf252ad1be2c89b69c2b068fc378daa952ba7f163c4a11628f55a4df523b3ef60405160405180910390a461108b8383836114c7565b505050565b8173ffffffffffffffffffffffffffffffffffffffff168373ffffffffffffffffffffffffffffffffffffffff1614156110ff576040517f08c379a00000000000000000000000000000000000000000000000000000000081526004016110f690612244565b60405180910390fd5b80600560008573ffffffffffffffffffffffffffffffffffffffff1673ffffffffffffffffffffffffffffffffffffffff16815260200190815260200160002060008473ffffffffffffffffffffffffffffffffffffffff1673ffffffffffffffffffffffffffffffffffffffff16815260200190815260200160002060006101000a81548160ff0219169083151502179055508173ffffffffffffffffffffffffffffffffffffffff168373ffffffffffffffffffffffffffffffffffffffff167f17307eab39ab6107e8899845ad3d59bd9653f200f220920489ca2b5937696c31836040516111f09190612149565b60405180910390a3505050565b611208848484610e29565b611214848484846114cc565b611253576040517f08c379a000000000000000000000000000000000000000000000000000000000815260040161124a906121c4565b60405180910390fd5b50505050565b606060405180602001604052806000815250905090565b606061127b82610c88565b6000611285611259565b905060008151116112a557604051806020016040528060008152506112d0565b806112af84611663565b6040516020016112c0929190612095565b6040516020818303038152906040525b915050919050565b600081600001549050919050565b611300828260405180602001604052806000815250611810565b5050565b61130d82611456565b61134c576040517f08c379a000000000000000000000000000000000000000000000000000000000815260040161134390612284565b60405180910390fd5b80600660008481526020019081526020016000209080519060200190611373929190611a68565b505050565b61141283838360405160240161139093929190612186565b6040516020818303038152906040527fe3849f79000000000000000000000000000000000000000000000000000000007bffffffffffffffffffffffffffffffffffffffffffffffffffffffff19166020820180517bffffffffffffffffffffffffffffffffffffffffffffffffffffffff838183161783525050505061142d565b505050565b6001816000016000828254019250508190555050565b60008151905060006a636f6e736f6c652e6c6f679050602083016000808483855afa5050505050565b60008073ffffffffffffffffffffffffffffffffffffffff166002600084815260200190815260200160002060009054906101000a900473ffffffffffffffffffffffffffffffffffffffff1673ffffffffffffffffffffffffffffffffffffffff1614159050919050565b505050565b505050565b60006114ed8473ffffffffffffffffffffffffffffffffffffffff1661186b565b15611656578373ffffffffffffffffffffffffffffffffffffffff1663150b7a02611516610cd3565b8786866040518563ffffffff1660e01b815260040161153894939291906120d4565b602060405180830381600087803b15801561155257600080fd5b505af192505050801561158357506040513d601f19601f820116820180604052508101906115809190611dac565b60015b611606573d80600081146115b3576040519150601f19603f3d011682016040523d82523d6000602084013e6115b8565b606091505b506000815114156115fe576040517f08c379a00000000000000000000000000000000000000000000000000000000081526004016115f5906121c4565b60405180910390fd5b805181602001fd5b63150b7a0260e01b7bffffffffffffffffffffffffffffffffffffffffffffffffffffffff1916817bffffffffffffffffffffffffffffffffffffffffffffffffffffffff19161491505061165b565b600190505b949350505050565b606060008214156116ab576040518060400160405280600181526020017f3000000000000000000000000000000000000000000000000000000000000000815250905061180b565b600082905060005b600082146116dd5780806116c6906125ec565b915050600a826116d6919061246e565b91506116b3565b60008167ffffffffffffffff81111561171f577f4e487b7100000000000000000000000000000000000000000000000000000000600052604160045260246000fd5b6040519080825280601f01601f1916602001820160405280156117515781602001600182028036833780820191505090505b5090505b600085146118045760018261176a919061249f565b9150600a856117799190612635565b60306117859190612418565b60f81b8183815181106117c1577f4e487b7100000000000000000000000000000000000000000000000000000000600052603260045260246000fd5b60200101907effffffffffffffffffffffffffffffffffffffffffffffffffffffffffffff1916908160001a905350600a856117fd919061246e565b9450611755565b8093505050505b919050565b61181a838361188e565b61182760008484846114cc565b611866576040517f08c379a000000000000000000000000000000000000000000000000000000000815260040161185d906121c4565b60405180910390fd5b505050565b6000808273ffffffffffffffffffffffffffffffffffffffff163b119050919050565b600073ffffffffffffffffffffffffffffffffffffffff168273ffffffffffffffffffffffffffffffffffffffff1614156118fe576040517f08c379a00000000000000000000000000000000000000000000000000000000081526004016118f5906122c4565b60405180910390fd5b61190781611456565b15611947576040517f08c379a000000000000000000000000000000000000000000000000000000000815260040161193e90612204565b60405180910390fd5b611953600083836114c2565b6001600360008473ffffffffffffffffffffffffffffffffffffffff1673ffffffffffffffffffffffffffffffffffffffff16815260200190815260200160002060008282546119a39190612418565b92505081905550816002600083815260200190815260200160002060006101000a81548173ffffffffffffffffffffffffffffffffffffffff021916908373ffffffffffffffffffffffffffffffffffffffff160217905550808273ffffffffffffffffffffffffffffffffffffffff16600073ffffffffffffffffffffffffffffffffffffffff167fddf252ad1be2c89b69c2b068fc378daa952ba7f163c4a11628f55a4df523b3ef60405160405180910390a4611a64600083836114c7565b5050565b828054611a7490612589565b90600052602060002090601f016020900481019282611a965760008555611add565b82601f10611aaf57805160ff1916838001178555611add565b82800160010185558215611add579182015b82811115611adc578251825591602001919060010190611ac1565b5b509050611aea9190611aee565b5090565b5b80821115611b07576000816000905550600101611aef565b5090565b6000611b1e611b19846123a4565b61237f565b905082815260208101848484011115611b3657600080fd5b611b41848285612547565b509392505050565b600081359050611b5881612a78565b92915050565b600081359050611b6d81612a8f565b92915050565b600081359050611b8281612aa6565b92915050565b600081519050611b9781612aa6565b92915050565b600082601f830112611bae57600080fd5b8135611bbe848260208601611b0b565b91505092915050565b600081359050611bd681612abd565b92915050565b600060208284031215611bee57600080fd5b6000611bfc84828501611b49565b91505092915050565b60008060408385031215611c1857600080fd5b6000611c2685828601611b49565b9250506020611c3785828601611b49565b9150509250929050565b600080600060608486031215611c5657600080fd5b6000611c6486828701611b49565b9350506020611c7586828701611b49565b9250506040611c8686828701611bc7565b9150509250925092565b60008060008060808587031215611ca657600080fd5b6000611cb487828801611b49565b9450506020611cc587828801611b49565b9350506040611cd687828801611bc7565b925050606085013567ffffffffffffffff811115611cf357600080fd5b611cff87828801611b9d565b91505092959194509250565b60008060408385031215611d1e57600080fd5b6000611d2c85828601611b49565b9250506020611d3d85828601611b5e565b9150509250929050565b60008060408385031215611d5a57600080fd5b6000611d6885828601611b49565b9250506020611d7985828601611bc7565b9150509250929050565b600060208284031215611d9557600080fd5b6000611da384828501611b73565b91505092915050565b600060208284031215611dbe57600080fd5b6000611dcc84828501611b88565b91505092915050565b600060208284031215611de757600080fd5b6000611df584828501611bc7565b91505092915050565b611e07816124d3565b82525050565b611e16816124e5565b82525050565b6000611e27826123d5565b611e3181856123eb565b9350611e41818560208601612556565b611e4a81612722565b840191505092915050565b6000611e60826123e0565b611e6a81856123fc565b9350611e7a818560208601612556565b611e8381612722565b840191505092915050565b6000611e99826123e0565b611ea3818561240d565b9350611eb3818560208601612556565b80840191505092915050565b6000611ecc6032836123fc565b9150611ed782612733565b604082019050919050565b6000611eef6025836123fc565b9150611efa82612782565b604082019050919050565b6000611f12601c836123fc565b9150611f1d826127d1565b602082019050919050565b6000611f356024836123fc565b9150611f40826127fa565b604082019050919050565b6000611f586019836123fc565b9150611f6382612849565b602082019050919050565b6000611f7b6029836123fc565b9150611f8682612872565b604082019050919050565b6000611f9e602e836123fc565b9150611fa9826128c1565b604082019050919050565b6000611fc1603e836123fc565b9150611fcc82612910565b604082019050919050565b6000611fe46020836123fc565b9150611fef8261295f565b602082019050919050565b60006120076014836123fc565b915061201282612988565b602082019050919050565b600061202a6018836123fc565b9150612035826129b1565b602082019050919050565b600061204d6021836123fc565b9150612058826129da565b604082019050919050565b6000612070602e836123fc565b915061207b82612a29565b604082019050919050565b61208f8161253d565b82525050565b60006120a18285611e8e565b91506120ad8284611e8e565b91508190509392505050565b60006020820190506120ce6000830184611dfe565b92915050565b60006080820190506120e96000830187611dfe565b6120f66020830186611dfe565b6121036040830185612086565b81810360608301526121158184611e1c565b905095945050505050565b60006040820190506121356000830185611dfe565b6121426020830184612086565b9392505050565b600060208201905061215e6000830184611e0d565b92915050565b6000602082019050818103600083015261217e8184611e55565b905092915050565b600060608201905081810360008301526121a08186611e55565b90506121af6020830185612086565b6121bc6040830184611dfe565b949350505050565b600060208201905081810360008301526121dd81611ebf565b9050919050565b600060208201905081810360008301526121fd81611ee2565b9050919050565b6000602082019050818103600083015261221d81611f05565b9050919050565b6000602082019050818103600083015261223d81611f28565b9050919050565b6000602082019050818103600083015261225d81611f4b565b9050919050565b6000602082019050818103600083015261227d81611f6e565b9050919050565b6000602082019050818103600083015261229d81611f91565b9050919050565b600060208201905081810360008301526122bd81611fb4565b9050919050565b600060208201905081810360008301526122dd81611fd7565b9050919050565b600060208201905081810360008301526122fd81611ffa565b9050919050565b6000602082019050818103600083015261231d8161201d565b9050919050565b6000602082019050818103600083015261233d81612040565b9050919050565b6000602082019050818103600083015261235d81612063565b9050919050565b60006020820190506123796000830184612086565b92915050565b600061238961239a565b905061239582826125bb565b919050565b6000604051905090565b600067ffffffffffffffff8211156123bf576123be6126f3565b5b6123c882612722565b9050602081019050919050565b600081519050919050565b600081519050919050565b600082825260208201905092915050565b600082825260208201905092915050565b600081905092915050565b60006124238261253d565b915061242e8361253d565b9250827fffffffffffffffffffffffffffffffffffffffffffffffffffffffffffffffff0382111561246357612462612666565b5b828201905092915050565b60006124798261253d565b91506124848361253d565b92508261249457612493612695565b5b828204905092915050565b60006124aa8261253d565b91506124b58361253d565b9250828210156124c8576124c7612666565b5b828203905092915050565b60006124de8261251d565b9050919050565b60008115159050919050565b60007fffffffff0000000000000000000000000000000000000000000000000000000082169050919050565b600073ffffffffffffffffffffffffffffffffffffffff82169050919050565b6000819050919050565b82818337600083830152505050565b60005b83811015612574578082015181840152602081019050612559565b83811115612583576000848401525b50505050565b600060028204905060018216806125a157607f821691505b602082108114156125b5576125b46126c4565b5b50919050565b6125c482612722565b810181811067ffffffffffffffff821117156125e3576125e26126f3565b5b80604052505050565b60006125f78261253d565b91507fffffffffffffffffffffffffffffffffffffffffffffffffffffffffffffffff82141561262a57612629612666565b5b600182019050919050565b60006126408261253d565b915061264b8361253d565b92508261265b5761265a612695565b5b828206905092915050565b7f4e487b7100000000000000000000000000000000000000000000000000000000600052601160045260246000fd5b7f4e487b7100000000000000000000000000000000000000000000000000000000600052601260045260246000fd5b7f4e487b7100000000000000000000000000000000000000000000000000000000600052602260045260246000fd5b7f4e487b7100000000000000000000000000000000000000000000000000000000600052604160045260246000fd5b6000601f19601f8301169050919050565b7f4552433732313a207472616e7366657220746f206e6f6e20455243373231526560008201527f63656976657220696d706c656d656e7465720000000000000000000000000000602082015250565b7f4552433732313a207472616e736665722066726f6d20696e636f72726563742060008201527f6f776e6572000000000000000000000000000000000000000000000000000000602082015250565b7f4552433732313a20746f6b656e20616c7265616479206d696e74656400000000600082015250565b7f4552433732313a207472616e7366657220746f20746865207a65726f2061646460008201527f7265737300000000000000000000000000000000000000000000000000000000602082015250565b7f4552433732313a20617070726f766520746f2063616c6c657200000000000000600082015250565b7f4552433732313a2061646472657373207a65726f206973206e6f74206120766160008201527f6c6964206f776e65720000000000000000000000000000000000000000000000602082015250565b7f45524337323155524953746f726167653a2055524920736574206f66206e6f6e60008201527f6578697374656e7420746f6b656e000000000000000000000000000000000000602082015250565b7f4552433732313a20617070726f76652063616c6c6572206973206e6f7420746f60008201527f6b656e206f776e6572206e6f7220617070726f76656420666f7220616c6c0000602082015250565b7f4552433732313a206d696e7420746f20746865207a65726f2061646472657373600082015250565b7f416c6c204e4654732077657265206d696e746564000000000000000000000000600082015250565b7f4552433732313a20696e76616c696420746f6b656e2049440000000000000000600082015250565b7f4552433732313a20617070726f76616c20746f2063757272656e74206f776e6560008201527f7200000000000000000000000000000000000000000000000000000000000000602082015250565b7f4552433732313a2063616c6c6572206973206e6f7420746f6b656e206f776e6560008201527f72206e6f7220617070726f766564000000000000000000000000000000000000602082015250565b612a81816124d3565b8114612a8c57600080fd5b50565b612a98816124e5565b8114612aa357600080fd5b50565b612aaf816124f1565b8114612aba57600080fd5b50565b612ac68161253d565b8114612ad157600080fd5b5056fe4e465420636f6d20494420257320666f69206d696e7461646f2070617261202573697066733a2f2f516d63486e7334756d625147585a42364e41705a527234727439414b644b526e686d38636e714241414833396631a26469706673582212201314046d423fb0871dbb32d3c6037673163564db8260cdbeab68660e3fca548364736f6c63430008010033",
  "linkReferences": {},
  "deployedLinkReferences": {}
}