{
  "_format": "hh-sol-artifact-1",
  "contractName": "MyNFTCollection",
  "sourceName": "contracts/MyNFTCollection.sol",
  "abi": [
    {
      "inputs": [],
      "stateMutability": "nonpayable",
      "type": "constructor"
    },
    {
      "anonymous": false,
      "inputs": [
        {
          "indexed": true,
          "internalType": "address",
          "name": "owner",
          "type": "address"
        },
        {
          "indexed": true,
          "internalType": "address",
          "name": "approved",
          "type": "address"
        },
        {
          "indexed": true,
          "internalType": "uint256",
          "name": "tokenId",
          "type": "uint256"
        }
      ],
      "name": "Approval",
      "type": "event"
    },
    {
      "anonymous": false,
      "inputs": [
        {
          "indexed": true,
          "internalType": "address",
          "name": "owner",
          "type": "address"
        },
        {
          "indexed": true,
          "internalType": "address",
          "name": "operator",
          "type": "address"
        },
        {
          "indexed": false,
          "internalType": "bool",
          "name": "approved",
          "type": "bool"
        }
      ],
      "name": "ApprovalForAll",
      "type": "event"
    },
    {
      "anonymous": false,
      "inputs": [
        {
          "indexed": true,
          "internalType": "address",
          "name": "from",
          "type": "address"
        },
        {
          "indexed": true,
          "internalType": "address",
          "name": "to",
          "type": "address"
        },
        {
          "indexed": true,
          "internalType": "uint256",
          "name": "tokenId",
          "type": "uint256"
        }
      ],
      "name": "Transfer",
      "type": "event"
    },
    {
      "anonymous": false,
      "inputs": [
        {
          "indexed": false,
          "internalType": "address",
          "name": "sender",
          "type": "address"
        },
        {
          "indexed": false,
          "internalType": "uint256",
          "name": "tokenId",
          "type": "uint256"
        }
      ],
      "name": "newNftMinted",
      "type": "event"
    },
    {
      "inputs": [
        {
          "internalType": "address",
          "name": "to",
          "type": "address"
        },
        {
          "internalType": "uint256",
          "name": "tokenId",
          "type": "uint256"
        }
      ],
      "name": "approve",
      "outputs": [],
      "stateMutability": "nonpayable",
      "type": "function"
    },
    {
      "inputs": [
        {
          "internalType": "address",
          "name": "owner",
          "type": "address"
        }
      ],
      "name": "balanceOf",
      "outputs": [
        {
          "internalType": "uint256",
          "name": "",
          "type": "uint256"
        }
      ],
      "stateMutability": "view",
      "type": "function"
    },
    {
      "inputs": [
        {
          "internalType": "uint256",
          "name": "tokenId",
          "type": "uint256"
        }
      ],
      "name": "getApproved",
      "outputs": [
        {
          "internalType": "address",
          "name": "",
          "type": "address"
        }
      ],
      "stateMutability": "view",
      "type": "function"
    },
    {
      "inputs": [],
      "name": "getNumberOfNftMinted",
      "outputs": [
        {
          "internalType": "uint256",
          "name": "",
          "type": "uint256"
        }
      ],
      "stateMutability": "view",
      "type": "function"
    },
    {
      "inputs": [
        {
          "internalType": "address",
          "name": "owner",
          "type": "address"
        },
        {
          "internalType": "address",
          "name": "operator",
          "type": "address"
        }
      ],
      "name": "isApprovedForAll",
      "outputs": [
        {
          "internalType": "bool",
          "name": "",
          "type": "bool"
        }
      ],
      "stateMutability": "view",
      "type": "function"
    },
    {
      "inputs": [],
      "name": "makeAnNFT",
      "outputs": [],
      "stateMutability": "nonpayable",
      "type": "function"
    },
    {
      "inputs": [],
      "name": "name",
      "outputs": [
        {
          "internalType": "string",
          "name": "",
          "type": "string"
        }
      ],
      "stateMutability": "view",
      "type": "function"
    },
    {
      "inputs": [
        {
          "internalType": "uint256",
          "name": "tokenId",
          "type": "uint256"
        }
      ],
      "name": "ownerOf",
      "outputs": [
        {
          "internalType": "address",
          "name": "",
          "type": "address"
        }
      ],
      "stateMutability": "view",
      "type": "function"
    },
    {
      "inputs": [
        {
          "internalType": "address",
          "name": "from",
          "type": "address"
        },
        {
          "internalType": "address",
          "name": "to",
          "type": "address"
        },
        {
          "internalType": "uint256",
          "name": "tokenId",
          "type": "uint256"
        }
      ],
      "name": "safeTransferFrom",
      "outputs": [],
      "stateMutability": "nonpayable",
      "type": "function"
    },
    {
      "inputs": [
        {
          "internalType": "address",
          "name": "from",
          "type": "address"
        },
        {
          "internalType": "address",
          "name": "to",
          "type": "address"
        },
        {
          "internalType": "uint256",
          "name": "tokenId",
          "type": "uint256"
        },
        {
          "internalType": "bytes",
          "name": "data",
          "type": "bytes"
        }
      ],
      "name": "safeTransferFrom",
      "outputs": [],
      "stateMutability": "nonpayable",
      "type": "function"
    },
    {
      "inputs": [
        {
          "internalType": "address",
          "name": "operator",
          "type": "address"
        },
        {
          "internalType": "bool",
          "name": "approved",
          "type": "bool"
        }
      ],
      "name": "setApprovalForAll",
      "outputs": [],
      "stateMutability": "nonpayable",
      "type": "function"
    },
    {
      "inputs": [
        {
          "internalType": "bytes4",
          "name": "interfaceId",
          "type": "bytes4"
        }
      ],
      "name": "supportsInterface",
      "outputs": [
        {
          "internalType": "bool",
          "name": "",
          "type": "bool"
        }
      ],
      "stateMutability": "view",
      "type": "function"
    },
    {
      "inputs": [],
      "name": "symbol",
      "outputs": [
        {
          "internalType": "string",
          "name": "",
          "type": "string"
        }
      ],
      "stateMutability": "view",
      "type": "function"
    },
    {
      "inputs": [
        {
          "internalType": "uint256",
          "name": "tokenId",
          "type": "uint256"
        }
      ],
      "name": "tokenURI",
      "outputs": [
        {
          "internalType": "string",
          "name": "",
          "type": "string"
        }
      ],
      "stateMutability": "view",
      "type": "function"
    },
    {
      "inputs": [
        {
          "internalType": "address",
          "name": "from",
          "type": "address"
        },
        {
          "internalType": "address",
          "name": "to",
          "type": "address"
        },
        {
          "internalType": "uint256",
          "name": "tokenId",
          "type": "uint256"
        }
      ],
      "name": "transferFrom",
      "outputs": [],
      "stateMutability": "nonpayable",
      "type": "function"
    }
  ],
  "bytecode": "0x6080604052604051806102e001604052806102b68152602001620034b26102b69139600890805190602001906200003892919062000209565b5060006009553480156200004b57600080fd5b506040518060400160405280600581526020017f6d794e66740000000000000000000000000000000000000000000000000000008152506040518060400160405280600481526020017f4d4e4654000000000000000000000000000000000000000000000000000000008152508160009080519060200190620000d092919062000209565b508060019080519060200190620000e992919062000209565b505050620001376040518060400160405280601281526020017f436f6e747261746f204e465420666569746f00000000000000000000000000008152506200013d60201b62000b411760201c565b620003e6565b620001dd81604051602401620001549190620002fa565b6040516020818303038152906040527f41304fac000000000000000000000000000000000000000000000000000000007bffffffffffffffffffffffffffffffffffffffffffffffffffffffff19166020820180517bffffffffffffffffffffffffffffffffffffffffffffffffffffffff8381831617835250505050620001e060201b60201c565b50565b60008151905060006a636f6e736f6c652e6c6f679050602083016000808483855afa5050505050565b828054620002179062000370565b90600052602060002090601f0160209004810192826200023b576000855562000287565b82601f106200025657805160ff191683800117855562000287565b8280016001018555821562000287579182015b828111156200028657825182559160200191906001019062000269565b5b5090506200029691906200029a565b5090565b5b80821115620002b55760008160009055506001016200029b565b5090565b6000620002c6826200031e565b620002d2818562000329565b9350620002e48185602086016200033a565b620002ef81620003d5565b840191505092915050565b60006020820190508181036000830152620003168184620002b9565b905092915050565b600081519050919050565b600082825260208201905092915050565b60005b838110156200035a5780820151818401526020810190506200033d565b838111156200036a576000848401525b50505050565b600060028204905060018216806200038957607f821691505b60208210811415620003a0576200039f620003a6565b5b50919050565b7f4e487b7100000000000000000000000000000000000000000000000000000000600052602260045260246000fd5b6000601f19601f8301169050919050565b6130bc80620003f66000396000f3fe608060405234801561001057600080fd5b50600436106100f55760003560e01c80636352211e11610097578063b88d4fde11610066578063b88d4fde14610284578063c87b56dd146102a0578063e4d098e1146102d0578063e985e9c5146102da576100f5565b80636352211e146101ea57806370a082311461021a57806395d89b411461024a578063a22cb46514610268576100f5565b8063095ea7b3116100d3578063095ea7b31461017857806323b872dd146101945780633f6d3e09146101b057806342842e0e146101ce576100f5565b806301ffc9a7146100fa57806306fdde031461012a578063081812fc14610148575b600080fd5b610114600480360381019061010f9190611d3f565b61030a565b60405161012191906120e2565b60405180910390f35b6101326103ec565b60405161013f91906120fd565b60405180910390f35b610162600480360381019061015d9190611d91565b61047e565b60405161016f9190612052565b60405180910390f35b610192600480360381019061018d9190611d03565b6104c4565b005b6101ae60048036038101906101a99190611bfd565b6105dc565b005b6101b861063c565b6040516101c591906122dd565b60405180910390f35b6101e860048036038101906101e39190611bfd565b610646565b005b61020460048036038101906101ff9190611d91565b610666565b6040516102119190612052565b60405180910390f35b610234600480360381019061022f9190611b98565b610718565b60405161024191906122dd565b60405180910390f35b6102526107d0565b60405161025f91906120fd565b60405180910390f35b610282600480360381019061027d9190611cc7565b610862565b005b61029e60048036038101906102999190611c4c565b610878565b005b6102ba60048036038101906102b59190611d91565b6108da565b6040516102c791906120fd565b60405180910390f35b6102d86109ed565b005b6102f460048036038101906102ef9190611bc1565b610aad565b60405161030191906120e2565b60405180910390f35b60007f80ac58cd000000000000000000000000000000000000000000000000000000007bffffffffffffffffffffffffffffffffffffffffffffffffffffffff1916827bffffffffffffffffffffffffffffffffffffffffffffffffffffffff191614806103d557507f5b5e139f000000000000000000000000000000000000000000000000000000007bffffffffffffffffffffffffffffffffffffffffffffffffffffffff1916827bffffffffffffffffffffffffffffffffffffffffffffffffffffffff1916145b806103e557506103e482610bda565b5b9050919050565b6060600080546103fb90612502565b80601f016020809104026020016040519081016040528092919081815260200182805461042790612502565b80156104745780601f1061044957610100808354040283529160200191610474565b820191906000526020600020905b81548152906001019060200180831161045757829003601f168201915b5050505050905090565b600061048982610c44565b6004600083815260200190815260200160002060009054906101000a900473ffffffffffffffffffffffffffffffffffffffff169050919050565b60006104cf82610666565b90508073ffffffffffffffffffffffffffffffffffffffff168373ffffffffffffffffffffffffffffffffffffffff161415610540576040517f08c379a00000000000000000000000000000000000000000000000000000000081526004016105379061229d565b60405180910390fd5b8073ffffffffffffffffffffffffffffffffffffffff1661055f610c8f565b73ffffffffffffffffffffffffffffffffffffffff16148061058e575061058d81610588610c8f565b610aad565b5b6105cd576040517f08c379a00000000000000000000000000000000000000000000000000000000081526004016105c49061223d565b60405180910390fd5b6105d78383610c97565b505050565b6105ed6105e7610c8f565b82610d50565b61062c576040517f08c379a0000000000000000000000000000000000000000000000000000000008152600401610623906122bd565b60405180910390fd5b610637838383610de5565b505050565b6000600954905090565b61066183838360405180602001604052806000815250610878565b505050565b6000806002600084815260200190815260200160002060009054906101000a900473ffffffffffffffffffffffffffffffffffffffff169050600073ffffffffffffffffffffffffffffffffffffffff168173ffffffffffffffffffffffffffffffffffffffff16141561070f576040517f08c379a00000000000000000000000000000000000000000000000000000000081526004016107069061227d565b60405180910390fd5b80915050919050565b60008073ffffffffffffffffffffffffffffffffffffffff168273ffffffffffffffffffffffffffffffffffffffff161415610789576040517f08c379a0000000000000000000000000000000000000000000000000000000008152600401610780906121fd565b60405180910390fd5b600360008373ffffffffffffffffffffffffffffffffffffffff1673ffffffffffffffffffffffffffffffffffffffff168152602001908152602001600020549050919050565b6060600180546107df90612502565b80601f016020809104026020016040519081016040528092919081815260200182805461080b90612502565b80156108585780601f1061082d57610100808354040283529160200191610858565b820191906000526020600020905b81548152906001019060200180831161083b57829003601f168201915b5050505050905090565b61087461086d610c8f565b838361104c565b5050565b610889610883610c8f565b83610d50565b6108c8576040517f08c379a00000000000000000000000000000000000000000000000000000000081526004016108bf906122bd565b60405180910390fd5b6108d4848484846111b9565b50505050565b60606108e582610c44565b600060066000848152602001908152602001600020805461090590612502565b80601f016020809104026020016040519081016040528092919081815260200182805461093190612502565b801561097e5780601f106109535761010080835404028352916020019161097e565b820191906000526020600020905b81548152906001019060200180831161096157829003601f168201915b50505050509050600061098f611215565b90506000815114156109a55781925050506109e8565b6000825111156109da5780826040516020016109c292919061202e565b604051602081830303815290604052925050506109e8565b6109e38461122c565b925050505b919050565b60006109f96007611294565b9050610a0533826112a2565b610a2a816040518061068001604052806106418152602001612a2561064191396112c0565b610a4d604051806060016040528060218152602001613066602191398233611334565b610a5760076113d3565b600160096000828254610a6a9190612391565b925050819055507f235834212a6b87f1642d2129e022f30aee6f09dd44f80bca0f551dc93b281ac43382604051610aa29291906120b9565b60405180910390a150565b6000600560008473ffffffffffffffffffffffffffffffffffffffff1673ffffffffffffffffffffffffffffffffffffffff16815260200190815260200160002060008373ffffffffffffffffffffffffffffffffffffffff1673ffffffffffffffffffffffffffffffffffffffff16815260200190815260200160002060009054906101000a900460ff16905092915050565b610bd781604051602401610b5591906120fd565b6040516020818303038152906040527f41304fac000000000000000000000000000000000000000000000000000000007bffffffffffffffffffffffffffffffffffffffffffffffffffffffff19166020820180517bffffffffffffffffffffffffffffffffffffffffffffffffffffffff83818316178352505050506113e9565b50565b60007f01ffc9a7000000000000000000000000000000000000000000000000000000007bffffffffffffffffffffffffffffffffffffffffffffffffffffffff1916827bffffffffffffffffffffffffffffffffffffffffffffffffffffffff1916149050919050565b610c4d81611412565b610c8c576040517f08c379a0000000000000000000000000000000000000000000000000000000008152600401610c839061227d565b60405180910390fd5b50565b600033905090565b816004600083815260200190815260200160002060006101000a81548173ffffffffffffffffffffffffffffffffffffffff021916908373ffffffffffffffffffffffffffffffffffffffff160217905550808273ffffffffffffffffffffffffffffffffffffffff16610d0a83610666565b73ffffffffffffffffffffffffffffffffffffffff167f8c5be1e5ebec7d5bd14f71427d1e84f3dd0314c0f7b2291e5b200ac8c7c3b92560405160405180910390a45050565b600080610d5c83610666565b90508073ffffffffffffffffffffffffffffffffffffffff168473ffffffffffffffffffffffffffffffffffffffff161480610d9e5750610d9d8185610aad565b5b80610ddc57508373ffffffffffffffffffffffffffffffffffffffff16610dc48461047e565b73ffffffffffffffffffffffffffffffffffffffff16145b91505092915050565b8273ffffffffffffffffffffffffffffffffffffffff16610e0582610666565b73ffffffffffffffffffffffffffffffffffffffff1614610e5b576040517f08c379a0000000000000000000000000000000000000000000000000000000008152600401610e529061217d565b60405180910390fd5b600073ffffffffffffffffffffffffffffffffffffffff168273ffffffffffffffffffffffffffffffffffffffff161415610ecb576040517f08c379a0000000000000000000000000000000000000000000000000000000008152600401610ec2906121bd565b60405180910390fd5b610ed683838361147e565b610ee1600082610c97565b6001600360008573ffffffffffffffffffffffffffffffffffffffff1673ffffffffffffffffffffffffffffffffffffffff1681526020019081526020016000206000828254610f319190612418565b925050819055506001600360008473ffffffffffffffffffffffffffffffffffffffff1673ffffffffffffffffffffffffffffffffffffffff1681526020019081526020016000206000828254610f889190612391565b92505081905550816002600083815260200190815260200160002060006101000a81548173ffffffffffffffffffffffffffffffffffffffff021916908373ffffffffffffffffffffffffffffffffffffffff160217905550808273ffffffffffffffffffffffffffffffffffffffff168473ffffffffffffffffffffffffffffffffffffffff167fddf252ad1be2c89b69c2b068fc378daa952ba7f163c4a11628f55a4df523b3ef60405160405180910390a4611047838383611483565b505050565b8173ffffffffffffffffffffffffffffffffffffffff168373ffffffffffffffffffffffffffffffffffffffff1614156110bb576040517f08c379a00000000000000000000000000000000000000000000000000000000081526004016110b2906121dd565b60405180910390fd5b80600560008573ffffffffffffffffffffffffffffffffffffffff1673ffffffffffffffffffffffffffffffffffffffff16815260200190815260200160002060008473ffffffffffffffffffffffffffffffffffffffff1673ffffffffffffffffffffffffffffffffffffffff16815260200190815260200160002060006101000a81548160ff0219169083151502179055508173ffffffffffffffffffffffffffffffffffffffff168373ffffffffffffffffffffffffffffffffffffffff167f17307eab39ab6107e8899845ad3d59bd9653f200f220920489ca2b5937696c31836040516111ac91906120e2565b60405180910390a3505050565b6111c4848484610de5565b6111d084848484611488565b61120f576040517f08c379a00000000000000000000000000000000000000000000000000000000081526004016112069061215d565b60405180910390fd5b50505050565b606060405180602001604052806000815250905090565b606061123782610c44565b6000611241611215565b90506000815111611261576040518060200160405280600081525061128c565b8061126b8461161f565b60405160200161127c92919061202e565b6040516020818303038152906040525b915050919050565b600081600001549050919050565b6112bc8282604051806020016040528060008152506117cc565b5050565b6112c982611412565b611308576040517f08c379a00000000000000000000000000000000000000000000000000000000081526004016112ff9061221d565b60405180910390fd5b8060066000848152602001908152602001600020908051906020019061132f929190611a24565b505050565b6113ce83838360405160240161134c9392919061211f565b6040516020818303038152906040527fe3849f79000000000000000000000000000000000000000000000000000000007bffffffffffffffffffffffffffffffffffffffffffffffffffffffff19166020820180517bffffffffffffffffffffffffffffffffffffffffffffffffffffffff83818316178352505050506113e9565b505050565b6001816000016000828254019250508190555050565b60008151905060006a636f6e736f6c652e6c6f679050602083016000808483855afa5050505050565b60008073ffffffffffffffffffffffffffffffffffffffff166002600084815260200190815260200160002060009054906101000a900473ffffffffffffffffffffffffffffffffffffffff1673ffffffffffffffffffffffffffffffffffffffff1614159050919050565b505050565b505050565b60006114a98473ffffffffffffffffffffffffffffffffffffffff16611827565b15611612578373ffffffffffffffffffffffffffffffffffffffff1663150b7a026114d2610c8f565b8786866040518563ffffffff1660e01b81526004016114f4949392919061206d565b602060405180830381600087803b15801561150e57600080fd5b505af192505050801561153f57506040513d601f19601f8201168201806040525081019061153c9190611d68565b60015b6115c2573d806000811461156f576040519150601f19603f3d011682016040523d82523d6000602084013e611574565b606091505b506000815114156115ba576040517f08c379a00000000000000000000000000000000000000000000000000000000081526004016115b19061215d565b60405180910390fd5b805181602001fd5b63150b7a0260e01b7bffffffffffffffffffffffffffffffffffffffffffffffffffffffff1916817bffffffffffffffffffffffffffffffffffffffffffffffffffffffff191614915050611617565b600190505b949350505050565b60606000821415611667576040518060400160405280600181526020017f300000000000000000000000000000000000000000000000000000000000000081525090506117c7565b600082905060005b6000821461169957808061168290612565565b915050600a8261169291906123e7565b915061166f565b60008167ffffffffffffffff8111156116db577f4e487b7100000000000000000000000000000000000000000000000000000000600052604160045260246000fd5b6040519080825280601f01601f19166020018201604052801561170d5781602001600182028036833780820191505090505b5090505b600085146117c0576001826117269190612418565b9150600a8561173591906125ae565b60306117419190612391565b60f81b81838151811061177d577f4e487b7100000000000000000000000000000000000000000000000000000000600052603260045260246000fd5b60200101907effffffffffffffffffffffffffffffffffffffffffffffffffffffffffffff1916908160001a905350600a856117b991906123e7565b9450611711565b8093505050505b919050565b6117d6838361184a565b6117e36000848484611488565b611822576040517f08c379a00000000000000000000000000000000000000000000000000000000081526004016118199061215d565b60405180910390fd5b505050565b6000808273ffffffffffffffffffffffffffffffffffffffff163b119050919050565b600073ffffffffffffffffffffffffffffffffffffffff168273ffffffffffffffffffffffffffffffffffffffff1614156118ba576040517f08c379a00000000000000000000000000000000000000000000000000000000081526004016118b19061225d565b60405180910390fd5b6118c381611412565b15611903576040517f08c379a00000000000000000000000000000000000000000000000000000000081526004016118fa9061219d565b60405180910390fd5b61190f6000838361147e565b6001600360008473ffffffffffffffffffffffffffffffffffffffff1673ffffffffffffffffffffffffffffffffffffffff168152602001908152602001600020600082825461195f9190612391565b92505081905550816002600083815260200190815260200160002060006101000a81548173ffffffffffffffffffffffffffffffffffffffff021916908373ffffffffffffffffffffffffffffffffffffffff160217905550808273ffffffffffffffffffffffffffffffffffffffff16600073ffffffffffffffffffffffffffffffffffffffff167fddf252ad1be2c89b69c2b068fc378daa952ba7f163c4a11628f55a4df523b3ef60405160405180910390a4611a2060008383611483565b5050565b828054611a3090612502565b90600052602060002090601f016020900481019282611a525760008555611a99565b82601f10611a6b57805160ff1916838001178555611a99565b82800160010185558215611a99579182015b82811115611a98578251825591602001919060010190611a7d565b5b509050611aa69190611aaa565b5090565b5b80821115611ac3576000816000905550600101611aab565b5090565b6000611ada611ad58461231d565b6122f8565b905082815260208101848484011115611af257600080fd5b611afd8482856124c0565b509392505050565b600081359050611b14816129c8565b92915050565b600081359050611b29816129df565b92915050565b600081359050611b3e816129f6565b92915050565b600081519050611b53816129f6565b92915050565b600082601f830112611b6a57600080fd5b8135611b7a848260208601611ac7565b91505092915050565b600081359050611b9281612a0d565b92915050565b600060208284031215611baa57600080fd5b6000611bb884828501611b05565b91505092915050565b60008060408385031215611bd457600080fd5b6000611be285828601611b05565b9250506020611bf385828601611b05565b9150509250929050565b600080600060608486031215611c1257600080fd5b6000611c2086828701611b05565b9350506020611c3186828701611b05565b9250506040611c4286828701611b83565b9150509250925092565b60008060008060808587031215611c6257600080fd5b6000611c7087828801611b05565b9450506020611c8187828801611b05565b9350506040611c9287828801611b83565b925050606085013567ffffffffffffffff811115611caf57600080fd5b611cbb87828801611b59565b91505092959194509250565b60008060408385031215611cda57600080fd5b6000611ce885828601611b05565b9250506020611cf985828601611b1a565b9150509250929050565b60008060408385031215611d1657600080fd5b6000611d2485828601611b05565b9250506020611d3585828601611b83565b9150509250929050565b600060208284031215611d5157600080fd5b6000611d5f84828501611b2f565b91505092915050565b600060208284031215611d7a57600080fd5b6000611d8884828501611b44565b91505092915050565b600060208284031215611da357600080fd5b6000611db184828501611b83565b91505092915050565b611dc38161244c565b82525050565b611dd28161245e565b82525050565b6000611de38261234e565b611ded8185612364565b9350611dfd8185602086016124cf565b611e068161269b565b840191505092915050565b6000611e1c82612359565b611e268185612375565b9350611e368185602086016124cf565b611e3f8161269b565b840191505092915050565b6000611e5582612359565b611e5f8185612386565b9350611e6f8185602086016124cf565b80840191505092915050565b6000611e88603283612375565b9150611e93826126ac565b604082019050919050565b6000611eab602583612375565b9150611eb6826126fb565b604082019050919050565b6000611ece601c83612375565b9150611ed98261274a565b602082019050919050565b6000611ef1602483612375565b9150611efc82612773565b604082019050919050565b6000611f14601983612375565b9150611f1f826127c2565b602082019050919050565b6000611f37602983612375565b9150611f42826127eb565b604082019050919050565b6000611f5a602e83612375565b9150611f658261283a565b604082019050919050565b6000611f7d603e83612375565b9150611f8882612889565b604082019050919050565b6000611fa0602083612375565b9150611fab826128d8565b602082019050919050565b6000611fc3601883612375565b9150611fce82612901565b602082019050919050565b6000611fe6602183612375565b9150611ff18261292a565b604082019050919050565b6000612009602e83612375565b915061201482612979565b604082019050919050565b612028816124b6565b82525050565b600061203a8285611e4a565b91506120468284611e4a565b91508190509392505050565b60006020820190506120676000830184611dba565b92915050565b60006080820190506120826000830187611dba565b61208f6020830186611dba565b61209c604083018561201f565b81810360608301526120ae8184611dd8565b905095945050505050565b60006040820190506120ce6000830185611dba565b6120db602083018461201f565b9392505050565b60006020820190506120f76000830184611dc9565b92915050565b600060208201905081810360008301526121178184611e11565b905092915050565b600060608201905081810360008301526121398186611e11565b9050612148602083018561201f565b6121556040830184611dba565b949350505050565b6000602082019050818103600083015261217681611e7b565b9050919050565b6000602082019050818103600083015261219681611e9e565b9050919050565b600060208201905081810360008301526121b681611ec1565b9050919050565b600060208201905081810360008301526121d681611ee4565b9050919050565b600060208201905081810360008301526121f681611f07565b9050919050565b6000602082019050818103600083015261221681611f2a565b9050919050565b6000602082019050818103600083015261223681611f4d565b9050919050565b6000602082019050818103600083015261225681611f70565b9050919050565b6000602082019050818103600083015261227681611f93565b9050919050565b6000602082019050818103600083015261229681611fb6565b9050919050565b600060208201905081810360008301526122b681611fd9565b9050919050565b600060208201905081810360008301526122d681611ffc565b9050919050565b60006020820190506122f2600083018461201f565b92915050565b6000612302612313565b905061230e8282612534565b919050565b6000604051905090565b600067ffffffffffffffff8211156123385761233761266c565b5b6123418261269b565b9050602081019050919050565b600081519050919050565b600081519050919050565b600082825260208201905092915050565b600082825260208201905092915050565b600081905092915050565b600061239c826124b6565b91506123a7836124b6565b9250827fffffffffffffffffffffffffffffffffffffffffffffffffffffffffffffffff038211156123dc576123db6125df565b5b828201905092915050565b60006123f2826124b6565b91506123fd836124b6565b92508261240d5761240c61260e565b5b828204905092915050565b6000612423826124b6565b915061242e836124b6565b925082821015612441576124406125df565b5b828203905092915050565b600061245782612496565b9050919050565b60008115159050919050565b60007fffffffff0000000000000000000000000000000000000000000000000000000082169050919050565b600073ffffffffffffffffffffffffffffffffffffffff82169050919050565b6000819050919050565b82818337600083830152505050565b60005b838110156124ed5780820151818401526020810190506124d2565b838111156124fc576000848401525b50505050565b6000600282049050600182168061251a57607f821691505b6020821081141561252e5761252d61263d565b5b50919050565b61253d8261269b565b810181811067ffffffffffffffff8211171561255c5761255b61266c565b5b80604052505050565b6000612570826124b6565b91507fffffffffffffffffffffffffffffffffffffffffffffffffffffffffffffffff8214156125a3576125a26125df565b5b600182019050919050565b60006125b9826124b6565b91506125c4836124b6565b9250826125d4576125d361260e565b5b828206905092915050565b7f4e487b7100000000000000000000000000000000000000000000000000000000600052601160045260246000fd5b7f4e487b7100000000000000000000000000000000000000000000000000000000600052601260045260246000fd5b7f4e487b7100000000000000000000000000000000000000000000000000000000600052602260045260246000fd5b7f4e487b7100000000000000000000000000000000000000000000000000000000600052604160045260246000fd5b6000601f19601f8301169050919050565b7f4552433732313a207472616e7366657220746f206e6f6e20455243373231526560008201527f63656976657220696d706c656d656e7465720000000000000000000000000000602082015250565b7f4552433732313a207472616e736665722066726f6d20696e636f72726563742060008201527f6f776e6572000000000000000000000000000000000000000000000000000000602082015250565b7f4552433732313a20746f6b656e20616c7265616479206d696e74656400000000600082015250565b7f4552433732313a207472616e7366657220746f20746865207a65726f2061646460008201527f7265737300000000000000000000000000000000000000000000000000000000602082015250565b7f4552433732313a20617070726f766520746f2063616c6c657200000000000000600082015250565b7f4552433732313a2061646472657373207a65726f206973206e6f74206120766160008201527f6c6964206f776e65720000000000000000000000000000000000000000000000602082015250565b7f45524337323155524953746f726167653a2055524920736574206f66206e6f6e60008201527f6578697374656e7420746f6b656e000000000000000000000000000000000000602082015250565b7f4552433732313a20617070726f76652063616c6c6572206973206e6f7420746f60008201527f6b656e206f776e6572206e6f7220617070726f76656420666f7220616c6c0000602082015250565b7f4552433732313a206d696e7420746f20746865207a65726f2061646472657373600082015250565b7f4552433732313a20696e76616c696420746f6b656e2049440000000000000000600082015250565b7f4552433732313a20617070726f76616c20746f2063757272656e74206f776e6560008201527f7200000000000000000000000000000000000000000000000000000000000000602082015250565b7f4552433732313a2063616c6c6572206973206e6f7420746f6b656e206f776e6560008201527f72206e6f7220617070726f766564000000000000000000000000000000000000602082015250565b6129d18161244c565b81146129dc57600080fd5b50565b6129e88161245e565b81146129f357600080fd5b50565b6129ff8161246a565b8114612a0a57600080fd5b50565b612a16816124b6565b8114612a2157600080fd5b5056fe646174613a6170706c69636174696f6e2f6a736f6e3b6261736536342c65776f6749434a755957316c496a6f67496c5231596d4670626d464e623346315a574e685457467959574e31616d45694c416f6749434a6b5a584e6a636d6c7764476c766269493649434a566253424f526c5167633356775a5849675a6d467462334e764947526c494856745953426a6232786c773666446f3238675a475567635856685a484a685a47397a4969774b49434169615731685a3255694f6941695a474630595470706257466e5a53397a646d6372654731734f324a68633255324e43785153453479576e64765a306c4961485269527a563655464e4b62325249556e6450615468325a444e6b4d3078755933704d62546c35576e6b34655531455158644d4d303479576e6c4a53306c44516e646a62565a36576c684b4d6c7056526e706a52315a715a455a4b6147524862485a5155306f3056466473645664564d58426961554a30576c64574d456c6e6232644a53467077576c686b5132497a5a7a6c4a616b466e54554e42656b35555157644e656c5633535764764b304e705157645152314a73576d354e4b304e705157644a51304534596b647364567058526e6c534d30706f576b647362474a7555576468563145355357746b65566c58556e4261567a557754564e4a4b304e705157644a5130466e53555234656d52484f58644a5230357a5756684f656c4254536e706b527a6c3354564e4a5a324979576d316a4d6c597755464e4a6430705453585a515a32396e53554e425a306c445154686a4d314a3259304e43616d4a48526e706a656a4270597a4e53646d4e4553576c4a527a6c74576d354f624752454d476c4f5645467353576b344b304e705157644a5130466e53555234656d52484f58644a5230357a5756684f656c4254536e706b527a6c3354586c4a5a324979576d316a4d6c597755464e4a654531455157784a6154677251326c425a306c445154684d4d6e6877596d315761474e725a486c5a56314a77576c63314d46426e6232644a52486432576b645762574e364e45744a51304534597a4e534e574a48565374446155466e53554e4264566c74526e70615530493351326c425a306c445157644a52317077596b64334e6b6c48536e4e6b5631553351326c425a306c445157644a52317032596d355264467074526e52685633673154326c43656c7059536e4261616e4e4c53554e425a306c445157646162546c315a454d78656d46596347785061554635545568434e4539336232644a5130466e53554e43616d497965485a6a616d396e5354426152314a716330744a5130466e5355677753306c445157644a517a56365a45633564303154516a644a53453477596a4e4264466b794f584e694d306b325355646b65567058566e56506555493551326c425a306c445158566a4d314a325930524a5a325635516e706b527a6c335446644f646d4a484f586c506155497a595564734d4670556332646a4d314a3259304d78646d4e48526d70685746493154326c4264303935516a6c446155466e53554e4264574d7a556e5a6a5245316e5a586c43656d52484f58644d56303532596b633565553970516a56615633687a596a4e6a4e306c494d45744a5130466e535546765a306c4564335a6a4d314931596b64564b304e70515764515345707357544e525a3251796247746b52326335535770466430314456576c4a523268735956646b623252454d476c4e56454633536c4e4a5a31707462484e69524442705a46684b63307444546b686a62555a7259566457645752455258424a61554632554764765a306c45654442615747677751326c425a306c44516a525155306b7854554e5661554e705157644a5130493155464e4a4d55314456576c446155466e53554e43616d4a48526e706a656a427057573147656c70545355744a5130466e53556453646d4a586248565a567a55775446644b61474d79566e4e68567a567355464e4b64474658556d74695231567051326c425a306c44516a4261574767775446644764566b7961485a6a616a4270596c6473613170486547784a5a32396e5355513053306c445157644a526c49785757314763474a74526b35694d305978576c644f61465258526e6c5a563034785957314653306c445154684d4d314a735a5568524b304e7164335a6a4d317075554764765053494b66516f3d4e465420636f6d20494420257320666f69206d696e7461646f2070617261202573a2646970667358221220b6405f3ebef3ab2d03ee2011e48381c66a05af5d891aab7f06bf1393e10b0f0964736f6c634300080100333c7376672020786d6c6e733d27687474703a2f2f7777772e77332e6f72672f323030302f7376672720207072657365727665417370656374526174696f3d27784d696e594d696e206d65657427202076696577426f783d273020302033353020333530273e20203c646566733e202020203c6c696e6561724772616469656e742069643d274772616469656e7431273e2020202020203c73746f7020636c6173733d2773746f703127206f66667365743d273025272f3e2020202020203c73746f7020636c6173733d2773746f703227206f66667365743d27353025272f3e2020202020203c73746f7020636c6173733d2773746f703327206f66667365743d2731303025272f3e202020203c2f6c696e6561724772616469656e743e20203c2f646566733e20203c7374796c653e202020202e62617365207b20202020202066696c6c3a20626c75653b202020202020666f6e742d66616d696c793a2073657269663b202020202020666f6e742d73697a653a20323070783b202020202020636f6c6f723a20234646463b202020207d202020202e73746f7031207b2073746f702d636f6c6f723a20677265656e3b207d202020202e73746f7032207b2073746f702d636f6c6f723a2077686974653b2073746f702d6f7061636974793a20303b207d202020202e73746f7033207b2073746f702d636f6c6f723a2079656c6c6f773b207d2020202020203c2f7374796c653e20203c726563742077696474683d273130302527206865696768743d2731303025272066696c6c3d2775726c28234772616469656e74312927202f3e20203c7465787420202020783d273530252720202020793d273530252720202020636c6173733d27626173652720202020646f6d696e616e742d626173656c696e653d276d6964646c652720202020746578742d616e63686f723d276d6964646c652720203e",
  "linkReferences": {},
  "deployedLinkReferences": {}
}